:020000040000FA
:10000000ACEF09F0FFFFFFFFFFFFFFFFFFFFFFFF68
:10001000FFFFFFFFFFFFFFFFFFFFFFFFFFFFFFFFF0
:10002000FFFFFFFFFFFFFFFFFFFFFFFFFFFFFFFFE0
:10003000FFFFFFFFFFFFFFFFFFFFFFFFFFFFFFFFD0
:10004000FFFFFFFFFFFFFFFFFFFFFFFFFFFFFFFFC0
:10005000FFFFFFFFFFFFFFFFFFFFFFFFFFFFFFFFB0
:10006000FFFFFFFFFFFFFFFFFFFFFFFFFFFFFFFFA0
:10007000FFFFFFFFFFFFFFFFFFFFFFFFFFFFFFFF90
:10008000FFFFFFFFFFFFFFFFFFFFFFFFFFFFFFFF80
:10009000FFFFFFFFFFFFFFFFFFFFFFFFFFFFFFFF70
:1000A000FFFFFFFFFFFFFFFFFFFFFFFFFFFFFFFF60
:1000B000FFFFFFFFFFFFFFFFFFFFFFFFFFFFFFFF50
:1000C000FFFFFFFFFFFFFFFFFFFFFFFFFFFFFFFF40
:1000D000FFFFFFFFFFFFFFFFFFFFFFFFFFFFFFFF30
:1000E000FFFFFFFFFFFFFFFFFFFFFFFFFFFFFFFF20
:1000F000FFFFFFFFFFFFFFFFFFFFFFFFFFFFFFFF10
:10010000FFFFFFFFFFFFFFFFFFFFFFFFFFFFFFFFFF
:10011000FFFFFFFFFFFFFFFFFFFFFFFFFFFFFFFFEF
:10012000FFFFFFFFFFFFFFFFFFFFFFFFFFFFFFFFDF
:10013000FFFFFFFFFFFFFFFFFFFFFFFFFFFFFFFFCF
:10014000FFFFFFFFFFFFFFFFFFFFFFFFFFFFFFFFBF
:10015000FFFFFFFFFFFFFFFFFFFFFFFFFFFFFFFFAF
:10016000FFFFFFFFFFFFFFFFFFFFFFFFFFFFFFFF9F
:10017000FFFFFFFFFFFFFFFFFFFFFFFFFFFFFFFF8F
:10018000FFFFFFFFFFFFFFFFFFFFFFFFFFFFFFFF7F
:10019000FFFFFFFFFFFFFFFFFFFFFFFFFFFFFFFF6F
:1001A000FFFFFFFFFFFFFFFFFFFFFFFFFFFFFFFF5F
:1001B000FFFFFFFFFFFFFFFFFFFFFFFFFFFFFFFF4F
:1001C000FFFFFFFFFFFFFFFFFFFFFFFFFFFFFFFF3F
:1001D000FFFFFFFFFFFFFFFFFFFFFFFFFFFFFFFF2F
:1001E000FFFFFFFFFFFFFFFFFFFFFFFFFFFFFFFF1F
:1001F000FFFFFFFFFFFFFFFFFFFFFFFFFFFFFFFF0F
:100200000076913E00483F68913DCDCC3F00003ED6
:10021000299C40002AC02EF02F6A306A29342E36DD
:1002200001E32F802E50336E2DC02EF02F6A306ADE
:100230002C342E3601E32F802E50326E3350D8B43A
:100240000BD03250335CD8B00ED03350000832247B
:100250002E6E180E2E6407D02BC028F02CC029F06B
:100260002DC02AF012003250D8B40BD03350325C7B
:10027000D8B00ED03250000833242E6E180E2E64E3
:1002800007D028C028F029C029F02AC02AF012007F
:10029000060E316E2ABE318E2DBE318C298EFF0E98
:1002A0002816FF0E2916000E2A162C8EFF0E2B166E
:1002B000FF0E2C16000E2D163250335CD8B01BD01A
:1002C000D8902B362C362D36320633503218D8B40F
:1002D0000DD0310631C02EF0070E2E16D8B406D040
:1002E000EFD7D8902A3229322832332A32503318A5
:1002F000D8B41FD0F6D73350325CD8B01AD0D890CB
:10030000283629362A36330633503218D8B40DD061
:10031000310631C02EF0070E2E16D8B406D0EFD716
:10032000D8902D322C322B32322A32503318D8A4A6
:10033000F7D731AE0CD0FF0E281AFF0E291AFF0E88
:100340002A1A010E2826000E2922000E2A2231AC7C
:100350000CD0FF0E2B1AFF0E2C1AFF0E2D1A010EB9
:100360002B26000E2C22000E2D22000E316E28505E
:100370002B2629502C222A502D222DAE0ED0FF0ED6
:100380002B1AFF0E2C1AFF0E2D1A010E2B26000E13
:100390002C22000E2D22010E316E2BC001F02CC03C
:1003A00002F02DC003F033C004F031C005F001ECC1
:1003B00006F001C028F002C029F003C02AF01200A4
:1003C00000018B0500018C11D8A4B1D0480E1C6E21
:1003D000610E1D6E3E0E1E6E62EC0AF00DC015F031
:1003E0000EC016F0E6EC09F015C019F016C01AF0B0
:1003F00017C01BF018EC03F019C043F01AC044F00A
:100400001BC045F09EEC02F043C068F044C069F0A8
:1004100068C009F069C00AF0000E046E640E036E35
:100420007DC001F07EC002F093EC07F001C00BF03C
:1004300002C00CF01BEC09F009C06AF00AC06BF0B6
:1004400092EC03F052C06CF053C06DF07EEC04F0FF
:1004500052C06EF053C06FF082AE120000016FBF49
:100460001200040E00016E5D100E00016F59D8A03D
:100470001200000E376E000E386E400E396E480EB8
:100480001C6E610E1D6E3E0E1E6E68C009F069C0C6
:100490000AF0C7EC0AF009C019F00AC01AF00BC044
:1004A0001BF018EC03F019C02BF01AC02CF01BC085
:1004B0002DF07DC015F07EC016F0E6EC09F015C0F9
:1004C00028F016C029F017C02AF00AEC01F028C065
:1004D00034F029C035F02AC036F00BEC04F034C0FB
:1004E00043F035C044F036C045F09EEC02F043C006
:1004F0007DF044C07EF000017E510D6E0001805100
:100500008DEC0AF00D0E5F6EFC0EE82EFED75F2E0E
:10051000FCD77DC00DF0000181518DEC0AF00D0E6D
:100520005F6EFC0EE82EFED75F2EFCD71200C9ECE2
:1005300009F003C08BF004C08CF0120045C047F0F6
:10054000486A496A4434473601E348804750516E4F
:100550005150D8A409D0000E436E000E446E000E18
:10056000456E000E466E1200170E476E43C048F0EF
:1005700044C049F045C04AF047284B6E04D0D8909B
:100580004A32493248324B2EFAD748504C6E448E8C
:10059000FF0E4316FF0E4416000E451643504D6ED7
:1005A00044504E6E45504F6E506A8E0E515E51AEA5
:1005B00016D05150800A8F0FD8B009D0000E436E6C
:1005C000000E446E000E456E000E466E1200D8906E
:1005D00050324F324E324D32513EF9D715D0170EB0
:1005E00051640FD0000E436E000E446E000E456E37
:1005F000000E466E1200D8904D364E364F365036AD
:1006000051065150D8A4F7D74C50D8B408D0501E3A
:100610004F1E4E1E4D6C000E4E224F2250224DC0DA
:1006200043F04EC044F04FC045F050C046F01200B9
:100630001BC01FF0206A216A1A341F3601E3208094
:100640001F50226E2250D8A407D0000E196E000E43
:100650001A6E000E1B6E12001EC01FF0206A216A67
:100660001D341F3601E320801F50276E2750D8A469
:1006700007D0000E196E000E1A6E000E1B6E1200CF
:1006800027507B0F22261BC027F01E50271A800EF2
:1006900027161A8E1D8EFF0E1C16FF0E1D16000E3D
:1006A0001E16000E236E000E246E000E256E070E21
:1006B000266E19A006D01C5023261D5024221E5041
:1006C0002522D8901B321A321932D8901C361D368A
:1006D0001E36262EEED7090E266E19A006D01C5007
:1006E00023261D5024221E502522D8901B321A3258
:1006F0001932D890253224322332262EEED723C049
:1007000001F024C002F025C003F022C004F027C08D
:1007100005F001EC06F001C019F002C01AF003C0A8
:100720001BF01200000E0001866F000E856F0E0E8A
:10073000D9EC0AF00001876F0F0ED9EC0AF0000126
:10074000886F546A87AF01D0542A010E5416545052
:100750000001856F866B070EF66E0900F5CF1CF061
:100760000900F5CF1DF00A00F5CF1EF085C054F04A
:1007700086C055F0000E55BEFF0E566E576E0F0E1A
:10078000D8905436553656365736E82EF9D7541E7B
:10079000551E561E571E542A000E55225622572209
:1007A00087C058F07F0E581658505A6E596A00018B
:1007B000885159245B6E0001000E5A205C6E5D6A00
:1007C0005CBE5D065D505E6E54505B24096E5550F4
:1007D0005C200A6E56505D200B6E57505E200C6EEA
:1007E00051EC08F009C019F00AC01AF00BC01BF058
:1007F00018EC03F019C043F01AC044F01BC045F0D8
:100800009EEC02F043C083F044C084F083C052F0F9
:1008100084C053F0120036C03AF03B6A3C6A35346B
:100820003A3601E33B803A50416E4150D8A407D09C
:10083000000E346E000E356E000E366E120039C09A
:100840003AF03B6A3C6A38343A3601E33B803A502E
:10085000426E4250D8A407D0000E346E000E356EA2
:10086000000E366E1200000E3E6E000E3F6E000E41
:10087000406E4250890F415E36C042F03950421AF4
:10088000800E4216358EFF0E3416FF0E3516000E02
:100890003616388EFF0E3716FF0E3816000E391634
:1008A000180E3D6ED8903E363F3640363750345C99
:1008B0003850355839503658D8A007D03750345EA4
:1008C0003850355A3950365A3E80D89034363536FD
:1008D00036363D2EE7D73EC001F03FC002F040C0A3
:1008E00003F041C004F042C005F001EC06F001C085
:1008F00034F002C035F003C036F01200000E596E1D
:10090000000E586E0C0ED9EC0AF05A6E0D0ED9EC92
:100910000AF05B6E546A5AAE01D0542A010E541686
:100920005450586E596A100EF66E0900F5CF1CF03F
:100930000900F5CF1DF00A00F5CF1EF05BC054F0A2
:10094000050E556ED8905432552EFCD7070E54160E
:100950005A507F0B566E576AD89056365736D890F5
:1009600056365736D8905636573654505624156E4C
:10097000000E5720166EE6EC09F015C019F016C0EF
:100980001AF017C01BF018EC03F019C043F01AC09E
:1009900044F01BC045F09EEC02F043C05CF044C044
:1009A0005DF0D8905C34016E5D34026E58C003F087
:1009B00059C004F0B4EC0AF0011E021E014A022ADA
:1009C0005C5001245C6E5D5002205D6E5CC052F094
:1009D0005DC053F0120068EC09F015EC08F0E0EC93
:1009E00001F082AE28D007EC0BF000017551D8A4BD
:1009F0000AD079C017F07AC018F07BC019F07CC01B
:100A00001AF0A1EC0AF000016DBF08D02C0E000115
:100A10006C5D010E00016D59D8B00AD079C017F095
:100A20007AC018F07BC019F07CC01AF0A1EC0AF073
:100A30008DEC08F00AD0000E0001756F81A803D07C
:100A4000EFEC08F002D07CEC0BF0030E00018A6F93
:100A50008A0E0001896F550EE82EFED7892FFCD72C
:100A60008A2FFAD700D0030E00018A6F8A0E000188
:100A7000896F550EE82EFED7892FFCD78A2FFAD71B
:100A800000D0000182510001D8B403D000018207D8
:100A9000A6D7010E0001786FA2D7076E1BEC0AF0F3
:100AA000030EE82EFED700F0120E50EC07F044ECD7
:100AB00009F0FF0AD8A407D036EC0BF078EC0AF066
:100AC000056806681200030EE82EFED700F0120E2D
:100AD00050EC07F044EC09F0FF0AD8A407D036EC3C
:100AE0000BF078EC0AF0056806681200030EE82E99
:100AF000FED700F0075050EC07F044EC09F0FF0A75
:100B0000D8A407D036EC0BF078EC0AF0056806683C
:100B10001200030EE82EFED700F0055050EC07F04F
:100B200044EC09F0FF0AD8A407D036EC0BF078ECBF
:100B30000AF0056806681200030EE82EFED700F0E2
:100B400078EC0AF0000E066E000E056E1200076EBD
:100B50001BEC0AF0030EE82EFED700F0120E50EC4C
:100B600007F044EC09F0FF0AD8A407D036EC0BF0EC
:100B700078EC0AF0056806681200030EE82EFED72E
:100B800000F0140E50EC07F044EC09F0FF0AD8A472
:100B900007D036EC0BF078EC0AF005680668120016
:100BA000030EE82EFED700F0075050EC07F044EC9F
:100BB00009F0FF0AD8A407D036EC0BF078EC0AF065
:100BC000056806681200030EE82EFED700F00550F7
:100BD00050EC07F044EC09F0FF0AD8A407D036EC3B
:100BE0000BF078EC0AF0056806681200030EE82E98
:100BF000FED700F078EC0AF0000E066E000E056ECF
:100C000012000450D8B405D0015002100310D8A42B
:100C10000CD0000E016E000E026E000E036E12006C
:100C2000042AD890033202320132000E0114066EFB
:100C3000000E0214076EFE0E0314086E0650071015
:100C40000810D8B40CD0ECD7042A010E0126000EEF
:100C50000222000E0322D890033202320132000E2B
:100C60000114066E000E0214076EFF0E0314086EC8
:100C7000065007100810D8B406D0E6D70406D8905E
:100C800001360236033602BE03D0020E0460F6D7E8
:100C900004A0029ED8900432045003120550D8A438
:100CA000038E01C001F002C002F003C003F0120085
:100CB000076E1BEC0AF0030EE82EFED700F0120EB2
:100CC00050EC07F044EC09F0FF0AD8A407D036EC4A
:100CD0000BF078EC0AF0056806681200030EE82EA7
:100CE000FED700F0150E50EC07F044EC09F0FF0AB7
:100CF000D8A407D036EC0BF078EC0AF0056806684B
:100D00001200030EE82EFED700F0075050EC07F05B
:100D100044EC09F0FF0AD8A407D036EC0BF078ECCD
:100D20000AF0056806681200030EE82EFED700F0F0
:100D3000055050EC07F044EC09F0FF0AD8A407D0A6
:100D400036EC0BF078EC0AF005680668120078ECD7
:100D50000AF0000E066E000E056E1200066E000E02
:100D6000086E000E076E08BE06D0085020E1080E7F
:100D7000075CD8B01CD007C004F006C005F0042AF8
:100D800002D0D8900532042EFCD705A007D0000E63
:100D9000026E010E016EEAEC0AF006D0000E026E41
:100DA000000E016EEAEC0AF0074A082ADCD7000EB2
:100DB0000A6E000E096E0ABE06D00A5020E1080E27
:100DC000095CD8B0120009C004F003C005F0042A81
:100DD00002D0D8900532042EFCD705A007D0000E13
:100DE000026E010E016EEAEC0AF006D0000E026EF1
:100DF000000E016EEAEC0AF0094A0A2ADCD712005A
:100E000009C001F00AC002F0010E046E000E036E6C
:100E100093EC07F001C013F002C014F013500E6EF3
:100E20000D6A0D1E0E1E0D4A0E2A09500D240F6E5E
:100E30000A500E20106E0BC001F00CC002F0010E23
:100E4000046E000E036E93EC07F001C015F002C0B3
:100E500016F015500E6E0D6A0D1E0E1E0D4A0E2A4E
:100E60000B500D24116E0C500E20126E13C005F0A5
:100E70000F50A7EC05F0052803E10628D8B41200AE
:100E800015C005F0115058EC06F0052803E10628BE
:100E9000D8B41200FF0E056EF00E4DEC05F01200F6
:100EA000036E070E046E04BE3CD09490829000F056
:100EB000F00EE82EFED704C001F003C002F0012AB4
:100EC00002D0D8900232012EFCD70230D8A002D036
:100ED000948201D0949204C001F003C002F0012A70
:100EE00002D0D8900232012EFCD702A002D0948208
:100EF00002D09492829200F0F00EE82EFED79490E9
:100F0000828000F0F00EE82EFED715EC0BF0000901
:100F1000D8B402D0010E1200F00EE82EFED704065F
:100F2000C2D7000E1200000E066E04AE06D0036C8F
:100F3000041ED8B0042A010E066E02AE06D0016C63
:100F4000021ED8B0022A010E061A000E086E000E0C
:100F5000076E03500410D8B41CD0010E056E04D0E7
:100F6000D89003360436052A04AEFAD7D89007364F
:100F700008360350015C04500258D8A005D0035035
:100F8000015E0450025A0780D89004320332052EC5
:100F9000EDD70650D8B404D0076C081ED8B0082A84
:100FA00007C001F008C002F0120063EC0BF00D0E58
:100FB0000E6EFC0EE82EFED70E2EFCD748EC0BF082
:100FC0000D0E0E6EFC0EE82EFED70E2EFCD75AEC40
:100FD0000BF00D0E0E6EFC0EE82EFED70E2EFCD77B
:100FE0003FEC0BF00D0E0E6EFC0EE82EFED70E2E13
:100FF000FCD751EC0BF00D0E0E6EFC0EE82EFED75A
:101000000E2EFCD76CEC0BF00D0E0E6EFC0EE82EC7
:10101000FED70E2EFCD733EC0AF00D0E0E6EFC0E32
:10102000E82EFED70E2EFCD7120000018B05000122
:101030008C11D8A42FD000017F5175EC0BF000016A
:10104000746F000174510001D8A408D0D5EC07F0EA
:10105000010E0D6E00017F518DEC0AF000018051F0
:1010600075EC0BF000017E6F7D6B0001000E7D17AB
:10107000FF0E7E170001815175EC0BF0106E1050C1
:1010800000017D27000E7E231F0E00017E6F400EA3
:101090007D6F1200C9EC09F003C08BF004C08CF026
:1010A0001200000E126E8E0E116E0CAE11D00C1EC0
:1010B0000B1E0A1E096C000E0A220B220C22010EC6
:1010C000126E06D0D8900C320B320A320932112A35
:1010D000000E09140D6E000E0A140E6E000E0B1495
:1010E0000F6EFF0E0C14106E0D500E100F1010101E
:1010F000D8A4E8D709C001F00AC002F00BC003F081
:1011000011C004F012C005F001EC06F001C009F0B6
:1011100002C00AF003C00BF0120000016B510DE198
:101120001E0E00016A5DD8B008D08294819A82BCFC
:1011300002D0828C1200829C120000016B510DE1E2
:101140003C0E00016A5DD8B008D0829481BA02D00A
:10115000818A01D0819A828C120000016B510DE1CD
:101160005A0E00016A5DD8B008D082B402D08284E1
:1011700001D08294818A828C12008284818A828C3E
:101180001200076E000E066E000E056E000E096E50
:10119000000E086E09BE06D0095020E1080E085C5A
:1011A000D8B0120008C003F007C004F0032A02D030
:1011B000D8900432032EFCD704A007D0000E026E94
:1011C000010E016EEAEC0AF006D0000E026E000E6F
:1011D000016EEAEC0AF0084A092ADCD71200000185
:1011E0006B510DE11E0E00016A5DD8B008D08294EB
:1011F000819A82BC02D0828C1200829C1200000173
:101200006B5109E13C0E00016A5DD8B004D08294B4
:10121000819A828C120000016B5109E15A0E000183
:101220006A5DD8B004D08294818A828C1200828454
:10123000818A828C1200000E0E6E000E0D6E0B5015
:101240000C10D8B41CD0010E0F6E04D0D8900B3601
:101250000C360F2A0CAEFAD7D8900D360E360B503E
:10126000095C0C500A58D8A005D00B50095E0C50F0
:101270000A5A0D80D8900C320B320F2EEDD70DC0CC
:1012800009F00EC00AF012009490829000F0F00E67
:10129000E82EFED79482F00EE82EFED7949082803E
:1012A00000F0F00EE82EFED7000E82B2010E036EA3
:1012B000F00EE82EFED70304D8A402D0FF0E1200D1
:1012C000949282908292F00EE82EFED70350120084
:1012D000000EF26E000E7E6E000E7F6E660ED36EF6
:1012E000000EBD6ED09EEF0E926E5F0E936E800E5E
:1012F000946E000E806E000E816E000E826E000EE7
:10130000776E000E786EC9EC09F003C08BF004C054
:101310008CF07CEC0BF01200000E046E000E066EDA
:10132000000E056E06BE06D0065014E1080E055CE0
:10133000D8B010D005C002F04BEC0AF0036E022AC0
:1013400002D0D8900336022EFCD703500412054A6F
:10135000062AE8D704501200120EF66E170EF76E2A
:10136000000EF86E00EE79F010EE0AF00900F5CFED
:10137000EEFFE550E150FAE100EE60F0190EEE6A82
:10138000E806FDE1000EF86E020EF76E0001EBEFCD
:1013900004F0000E076E000E066E939E818E410EC5
:1013A000056EEE0EE82EFED7052EFCD700D02BECF6
:1013B0000BF002EC0AF0056E0550066E076A818E8E
:1013C000938E06C003F007C004F01200000E186EE2
:1013D00016AE06D0156C161ED8B0162A010E186E61
:1013E00015C001F016C002F0036A8E0E046E18C01C
:1013F00005F001EC06F001C015F002C016F003C0C4
:1014000017F01200000E026E000E016E938E0BD0CC
:10141000014A022AE80E011806E1030E0218D8A4B8
:1014200002D0000E120081AEF3D7D50EE82EFED703
:1014300000F0010E12009490829000F0F00EE82E61
:10144000FED7948200F0F00EE82EFED794908280B2
:1014500000F0F00EE82EFED79492829200F0F00E8B
:10146000E82EFED71200800E0B6E630EF9EC0AF028
:10147000630E20EC0BF00D0E0D6EFC0EE82EFED769
:101480000D2EFCD75D0E0B6E620EF9EC0AF0620EAB
:1014900020EC0BF01200000E016E939E819E00D096
:1014A00000D000F0818E938E00D000D000D000D00C
:1014B000000E81BE010E016E1B0EE82EFED700F05D
:1014C00001501200100ED9EC0AF0136E110ED9EC77
:1014D0000AF0146E1350106E0F6A14500F24116E20
:1014E000000E1020126E11C00DF012C00EF012008E
:1014F0009492829200F0F00EE82EFED794908280B3
:1015000000F0F00EE82EFED7948200F0F00EE82EE8
:10151000FED79490829000F012000F6E000E0E6EB7
:101520001F0E0F641200300E0F6012000DC00BF082
:101530000F50F9EC0AF00F5020EC0BF0010E0E6E7C
:101540001200FB0E056EF00E4DEC05F017C009F011
:1015500018C00AF019C00BF01AC00CF000EC07F02C
:10156000010E0001756F120001500302F3CF05F068
:10157000F4CF06F001500402F35006260250030295
:10158000F350062605C001F006C002F0120009C0A3
:1015900001F00AC002F0036A8E0E046E000E056EA2
:1015A00001EC06F001C009F002C00AF003C00BF024
:1015B00012000B6E000E0C6EC9EC09F083EC0BF000
:1015C0000BC003F0690EAEEC06F08CEC09F00C6E6B
:1015D0000C501200939E819E00D000D000F001A01C
:1015E00002D0818E01D0819E1E0EE82EFED7938EF2
:1015F00012000C6EC9EC09F083EC0BF00CC003F088
:101600006C0EAEEC06F00B50C1EC08F0120081A895
:1016100006D0030E00017A6FE80E796F1200050EF6
:1016200000017A6FDC0E796F120082B007D0F00EE5
:10163000E82EFED782B002D0010E1200000E12007A
:101640000B6EC9EC09F083EC0BF00BC003F0480EF5
:10165000AEEC06F01200939E819ED50EE82EFED7CA
:1016600000F000D000D000F0938E12009490829091
:1016700000F0F00EE82EFED7948200F01200D20E99
:101680000B6E640EF9EC0AF0640E20EC0BF0120005
:10169000B20E0B6E660EF9EC0AF0660E20EC0BF043
:1016A0001200160E0B6E690EF9EC0AF0690E20ECB2
:1016B0000BF01200FF0E0B6E650EF9EC0AF0650ED2
:1016C00020EC0BF01200170E0B6E670EF9EC0AF00F
:1016D000670E20EC0BF01200790E0B6E140EF9EC75
:1016E0000AF0140E20EC0BF012000D6E0D50D9EC28
:1016F0000AF00E6E0E501200829C819A8294829A99
:10170000829880981200C9EC09F0CC0EC1EC08F068
:101710001200DC05A041401F2420221EFFFFFFFF16
:10172000FFFFFFFFFFFFFFFFFFFFFFFFFFFFFFFFC9
:10173000FFFFFFFFFFFFFFFFFFFFFFFFFFFFFFFFB9
:10174000FFFFFFFFFFFFFFFFFFFFFFFFFFFFFFFFA9
:10175000FFFFFFFFFFFFFFFFFFFFFFFFFFFFFFFF99
:020000040030CA
:0E00000000D81F000088800003C003E003400A
:0200000400F00A
:10000000FFFFFFFFFFFFFFFFFFFFFFFFFFFFFFFF00
:10001000FFFFFFFFFFFFFFFFFFFFFFFFFFFFFFFFF0
:10002000FFFFFFFFFFFFFFFFFFFFFFFFFFFFFFFFE0
:10003000FFFFFFFFFFFFFFFFFFFFFFFFFFFFFFFFD0
:10004000FFFFFFFFFFFFFFFFFFFFFFFFFFFFFFFFC0
:10005000FFFFFFFFFFFFFFFFFFFFFFFFFFFFFFFFB0
:10006000FFFFFFFFFFFFFFFFFFFFFFFFFFFFFFFFA0
:10007000FFFFFFFFFFFFFFFFFFFFFFFFFFFFFFFF90
:10008000FFFFFFFFFFFFFFFFFFFFFFFFFFFFFFFF80
:10009000FFFFFFFFFFFFFFFFFFFFFFFFFFFFFFFF70
:1000A000FFFFFFFFFFFFFFFFFFFFFFFFFFFFFFFF60
:1000B000FFFFFFFFFFFFFFFFFFFFFFFFFFFFFFFF50
:1000C000FFFFFFFFFFFFFFFFFFFFFFFFFFFFFFFF40
:1000D000FFFFFFFFFFFFFFFFFFFFFFFFFFFFFFFF30
:1000E000FFFFFFFFFFFFFFFFFFFFFFFFFFFFFFFF20
:1000F000FFFFFFFFFFFFFFFFFFFFFFFFFFFFFFFF10
:020000040020DA
:08000000FFFFFFFFFFFFFFFF00
:00000001FF
