:0400000095EF02F086
:100200000000483FCDCC3F76913E299C4000003E07
:1002100068913D00026E080E206E02C021F08B90A6
:1002200082B007D027EC03F00009D8B424D0FF0E29
:100230001200D8A003D0D880213603D02150212429
:10024000216ED8A00BD094909482030EE82EFED796
:1002500000F09480030EE82EFED70BD094908B9282
:100260009492030EE82EFED700F09480030EE82E41
:10027000FED700F020062050D8A4D2D7000E1200DE
:100280000650D8B430D01CEC02F002C007F003C016
:1002900008F0FF0E0814D8B402D0FF0E120004C0FC
:1002A000D9FF05C0DAFF07C0DFFF044A052A065060
:1002B000D8A40BD094909482030EE82EFED700F0C1
:1002C0009480030EE82EFED70BD094908B929492DC
:1002D000030EE82EFED700F09480030EE82EFED722
:1002E00000F00606CDD7000E1200030E116E0CD0E2
:1002F000020E106E040E0F6EBA0EE82EFED70F2EF1
:10030000FCD7102EFAD700D0130E0B6E000E0C6E19
:100310003FEC02F0126E1250D8B404D0110611282E
:10032000D8A4E6D71250D8A40FD01E50131804E159
:100330001F501418D8B406D013C01EF014C01FF0FC
:10034000010E1200000E12001250120009500A1085
:10035000D8A402D0020E1200F3EC02F0130E0AEC45
:1003600001F0800A800FD8B002D0040E120017EC02
:1003700003F0800A800FD8B002D0050E120009C029
:1003800004F00AC005F0020E066E40EC01F0800A8F
:10039000800FD8B002D0030E120006EC03F0000E5E
:1003A0001200036E38EC03F0120E0AEC01F0800A22
:1003B000800FD8B002D0040E120017EC03F0800AB0
:1003C000800FD8B002D0050E120003500AEC01F0E5
:1003D000800A800FD8B002D0040E120017EC03F090
:1003E000800A800FD8B002D0050E1200000E120055
:1003F00003500AEC01F00009D8B402D0040E120038
:1004000017EC03F0800A800FD8B002D0050E12005E
:1004100004500AEC01F00009D8B402D0040E120016
:1004200017EC03F0800A800FD8B002D0050E12003E
:1004300006EC03F0000E1200080E206E8B909490D4
:100440009482030EE82EFED700F0948000F000F0B6
:1004500082B00AD027EC03F00009D8B405D0FF0E13
:10046000036EFE0E026E1200D8902136219082B2E9
:100470002180202EE4D721C002F0036A12000B5025
:100480000C10D8A402D0020E1200130ED1EC01F011
:100490000D6E0D50D8B402D00D5012000BC009F0F3
:1004A0000CC00AF0A6EC01F00E6E0E50D8B402D0CB
:1004B0000E501200000E12002284228022C005F08D
:1004C00023C006F0DCEC02F0096E0950D8B402D06B
:1004D00009501200229022C005F023C006F0DCEC87
:1004E00002F00A6E0A50D8B402D00A501200000E70
:1004F0001200D3508F0B6009D36ED3A4FED7000E29
:100500007E6E5CEC02F0156E400E066E740E056E8B
:10051000AEEC02F0156E030E066EE80E056EC5EC2D
:1005200002F0156E75EC01F0FDD77E0EF66E060E2C
:10053000F76E000EF86E0900F5CF22F00900F5CF36
:1005400023F000EE16F00C0EEE6AE806FDE1000E58
:10055000F86E020EF76E000179EF02F0150ED1EC85
:1005600001F0076E0750D8B402D00750120005C042
:1005700003F006C004F0F8EC01F0086E0850D8B49F
:1005800002D008501200000E1200140ED1EC01F03F
:10059000076E0750D8B402D00750120005C003F010
:1005A00006C004F0F8EC01F0086E0850D8B402D090
:1005B00008501200000E1200120ED1EC01F0076E6E
:1005C0000750D8B402D00750120005C003F006C08F
:1005D00004F0F8EC01F0086E0850D8B402D00850CE
:1005E0001200000E12008B9094909482030EE82E5D
:1005F000FED700F09480030EE82EFED700F08B9219
:100600009492030EE82EFED700F012008B90949087
:100610008B929492030EE82EFED700F09480030E86
:10062000E82EFED700F0948200F000F012008B90CC
:1006300094909482030EE82EFED700F0948000F090
:1006400000F082A202D0FF0E1200000E1200030E74
:1006500030EC03F082B002D0FE0E1200000E120049
:10066000016E030EE82EFED700F0012EFAD712001D
:100670008B929492030EE82EFED700F0120094FBAA
:020000040020DA
:08000000FFFFFFFFFFFFFFFF00
:020000040030CA
:0E000000FFD81E00FF8080FF03C003E0034016
:00000001FF
